{"abi":[{"type":"constructor","inputs":[{"name":"_aiOracle","type":"address","internalType":"contract IAIOracle"}],"stateMutability":"nonpayable"},{"type":"function","name":"aiOracle","inputs":[],"outputs":[{"name":"","type":"address","internalType":"contract IAIOracle"}],"stateMutability":"view"},{"type":"function","name":"aiOracleCallback","inputs":[{"name":"requestId","type":"uint256","internalType":"uint256"},{"name":"output","type":"bytes","internalType":"bytes"},{"name":"callbackData","type":"bytes","internalType":"bytes"}],"outputs":[],"stateMutability":"nonpayable"},{"type":"function","name":"analyzeSentiment","inputs":[{"name":"text","type":"string","internalType":"string"}],"outputs":[],"stateMutability":"payable"},{"type":"function","name":"callbackGasLimit","inputs":[{"name":"","type":"uint256","internalType":"uint256"}],"outputs":[{"name":"","type":"uint64","internalType":"uint64"}],"stateMutability":"view"},{"type":"function","name":"estimateFee","inputs":[],"outputs":[{"name":"","type":"uint256","internalType":"uint256"}],"stateMutability":"view"},{"type":"function","name":"getInvestmentDecision","inputs":[],"outputs":[{"name":"","type":"string","internalType":"string"}],"stateMutability":"view"},{"type":"function","name":"getLatestPrompt","inputs":[],"outputs":[{"name":"","type":"string","internalType":"string"}],"stateMutability":"view"},{"type":"function","name":"getLatestResponse","inputs":[],"outputs":[{"name":"","type":"string","internalType":"string"}],"stateMutability":"view"},{"type":"function","name":"isFinalized","inputs":[{"name":"requestId","type":"uint256","internalType":"uint256"}],"outputs":[{"name":"","type":"bool","internalType":"bool"}],"stateMutability":"view"},{"type":"function","name":"latestPrompts","inputs":[{"name":"","type":"uint256","internalType":"uint256"}],"outputs":[{"name":"","type":"string","internalType":"string"}],"stateMutability":"view"},{"type":"function","name":"latestResponses","inputs":[{"name":"","type":"uint256","internalType":"uint256"}],"outputs":[{"name":"","type":"string","internalType":"string"}],"stateMutability":"view"},{"type":"function","name":"modelId","inputs":[],"outputs":[{"name":"","type":"uint256","internalType":"uint256"}],"stateMutability":"view"},{"type":"function","name":"prompts","inputs":[{"name":"","type":"uint256","internalType":"uint256"},{"name":"","type":"string","internalType":"string"}],"outputs":[{"name":"","type":"string","internalType":"string"}],"stateMutability":"view"},{"type":"function","name":"requests","inputs":[{"name":"","type":"uint256","internalType":"uint256"}],"outputs":[{"name":"sender","type":"address","internalType":"address"},{"name":"modelId","type":"uint256","internalType":"uint256"},{"name":"input","type":"bytes","internalType":"bytes"},{"name":"output","type":"bytes","internalType":"bytes"}],"stateMutability":"view"},{"type":"function","name":"setCallbackGasLimit","inputs":[{"name":"gasLimit","type":"uint64","internalType":"uint64"}],"outputs":[],"stateMutability":"nonpayable"},{"type":"event","name":"promptRequest","inputs":[{"name":"requestId","type":"uint256","indexed":false,"internalType":"uint256"},{"name":"sender","type":"address","indexed":false,"internalType":"address"},{"name":"modelId","type":"uint256","indexed":false,"internalType":"uint256"},{"name":"prompt","type":"string","indexed":false,"internalType":"string"}],"anonymous":false},{"type":"event","name":"promptsUpdated","inputs":[{"name":"requestId","type":"uint256","indexed":false,"internalType":"uint256"},{"name":"modelId","type":"uint256","indexed":false,"internalType":"uint256"},{"name":"input","type":"string","indexed":false,"internalType":"string"},{"name":"output","type":"string","indexed":false,"internalType":"string"},{"name":"callbackData","type":"bytes","indexed":false,"internalType":"bytes"}],"anonymous":false},{"type":"error","name":"UnauthorizedCallbackSource","inputs":[{"name":"expected","type":"address","internalType":"contract IAIOracle"},{"name":"found","type":"address","internalType":"contract IAIOracle"}]}],"bytecode":{"object":"0x600b60025560c0604052600060a090815260069061001d9082610139565b5034801561002a57600080fd5b506040516117a53803806117a5833981016040819052610049916101f8565b6001600160a01b0316608052600b60005260016020527ffc80cd5fe514767bc6e66ec558e68a5429ea70b50fa6caa3b53fc9278e91863280546001600160401b031916624c4b40179055610228565b634e487b7160e01b600052604160045260246000fd5b600181811c908216806100c257607f821691505b6020821081036100e257634e487b7160e01b600052602260045260246000fd5b50919050565b601f821115610134576000816000526020600020601f850160051c810160208610156101115750805b601f850160051c820191505b818110156101305782815560010161011d565b5050505b505050565b81516001600160401b0381111561015257610152610098565b6101668161016084546100ae565b846100e8565b602080601f83116001811461019b57600084156101835750858301515b600019600386901b1c1916600185901b178555610130565b600085815260208120601f198616915b828110156101ca578886015182559484019460019091019084016101ab565b50858210156101e85787850151600019600388901b60f8161c191681555b5050505050600190811b01905550565b60006020828403121561020a57600080fd5b81516001600160a01b038116811461022157600080fd5b9392505050565b60805161153f61026660003960008181610198015281816103b501528181610572015281816106b4015281816108ee015261092b015261153f6000f3fe6080604052600436106100e85760003560e01c80636f3be2111161008a578063a814e34f11610059578063a814e34f146102ed578063ad39277e14610302578063b034781414610317578063e6c2fa341461033757600080fd5b80636f3be211146102735780637f18dc851461028857806381d12c581461029d5780638cbc52d9146102cd57600080fd5b806331b221cd116100c657806331b221cd1461018657806333727c4d146101d257806343cdaad2146102025780636ec319141461022657600080fd5b806303a5ffc7146100ed57806311f7777f1461010257806320f3871814610138575b600080fd5b6101006100fb366004610cb4565b610357565b005b34801561010e57600080fd5b5061012261011d366004610cf5565b6104bf565b60405161012f9190610d54565b60405180910390f35b34801561014457600080fd5b5061016e610153366004610cf5565b6001602052600090815260409020546001600160401b031681565b6040516001600160401b03909116815260200161012f565b34801561019257600080fd5b506101ba7f000000000000000000000000000000000000000000000000000000000000000081565b6040516001600160a01b03909116815260200161012f565b3480156101de57600080fd5b506101f26101ed366004610cf5565b610559565b604051901515815260200161012f565b34801561020e57600080fd5b5061021860025481565b60405190815260200161012f565b34801561023257600080fd5b50610100610241366004610d6e565b6002546000908152600160205260409020805467ffffffffffffffff19166001600160401b0392909216919091179055565b34801561027f57600080fd5b506101226105eb565b34801561029457600080fd5b5061021861067d565b3480156102a957600080fd5b506102bd6102b8366004610cf5565b61072b565b60405161012f9493929190610d97565b3480156102d957600080fd5b506101226102e8366004610df1565b61086e565b3480156102f957600080fd5b506101226108a3565b34801561030e57600080fd5b506101226108c3565b34801561032357600080fd5b50610100610332366004610eab565b6108e3565b34801561034357600080fd5b50610122610352366004610cf5565b610b40565b6000828260405160200161036c929190610f24565b60408051601f198184030181526020838101835260008085526002548082526001909252838120549351632dca9c0360e11b815292955085943094909391926001600160a01b037f00000000000000000000000000000000000000000000000000000000000000001692635b9538069234926103fc9290918a918a916001600160401b0316908a90600401610fbc565b60206040518083038185885af115801561041a573d6000803e3d6000fd5b50505050506040513d601f19601f8201168201806040525081019061043f9190611011565b60008181526020819052604090209091506002810161045e86826110ca565b5080546001600160a01b031916339081178255600254600183018190556040517fa0faead83d70148ae18b694377f9bef079251342ab90e14af0f9ef68b891269f926104ad9286928b90611183565b60405180910390a15050505050505050565b600560205260009081526040902080546104d89061102a565b80601f01602080910402602001604051908101604052809291908181526020018280546105049061102a565b80156105515780601f1061052657610100808354040283529160200191610551565b820191906000526020600020905b81548152906001019060200180831161053457829003601f168201915b505050505081565b6040516333727c4d60e01b8152600481018290526000907f00000000000000000000000000000000000000000000000000000000000000006001600160a01b0316906333727c4d90602401602060405180830381865afa1580156105c1573d6000803e3d6000fd5b505050506040513d601f19601f820116820180604052508101906105e591906111ba565b92915050565b6060600680546105fa9061102a565b80601f01602080910402602001604051908101604052809291908181526020018280546106269061102a565b80156106735780601f1061064857610100808354040283529160200191610673565b820191906000526020600020905b81548152906001019060200180831161065657829003601f168201915b5050505050905090565b600254600081815260016020526040808220549051620e1d8d60e41b815260048101939093526001600160401b03166024830152907f00000000000000000000000000000000000000000000000000000000000000006001600160a01b03169062e1d8d090604401602060405180830381865afa158015610702573d6000803e3d6000fd5b505050506040513d601f19601f820116820180604052508101906107269190611011565b905090565b6000602081905290815260409020805460018201546002830180546001600160a01b0390931693919261075d9061102a565b80601f01602080910402602001604051908101604052809291908181526020018280546107899061102a565b80156107d65780601f106107ab576101008083540402835291602001916107d6565b820191906000526020600020905b8154815290600101906020018083116107b957829003601f168201915b5050505050908060030180546107eb9061102a565b80601f01602080910402602001604051908101604052809291908181526020018280546108179061102a565b80156108645780601f1061083957610100808354040283529160200191610864565b820191906000526020600020905b81548152906001019060200180831161084757829003601f168201915b5050505050905084565b60036020908152600092835260409092208151808301840180519281529084019290930191909120915280546104d89061102a565b60025460009081526005602052604090208054606091906105fa9061102a565b60025460009081526004602052604090208054606091906105fa9061102a565b336001600160a01b037f00000000000000000000000000000000000000000000000000000000000000001681146109655760405163432e033760e11b81526001600160a01b037f000000000000000000000000000000000000000000000000000000000000000081166004830152821660248201526044015b60405180910390fd5b600086815260208190526040902080546001600160a01b03166109c35760405162461bcd60e51b81526020600482015260166024820152751c995c5d595cdd08191bd95cc81b9bdd08195e1a5cdd60521b604482015260640161095c565b600381016109d28688836111dc565b5085856003600084600101548152602001908152602001600020836002016040516109fd9190611296565b90815260200160405180910390209182610a189291906111dc565b5060018101546000908152600460205260409020610a39600283018261130c565b5060018101546000908152600560205260409020610a588688836111dc565b506000610a9a87878080601f016020809104026020016040519081016040528093929190818152602001838380828437600092019190915250610b5992505050565b6040805180820190915260088152676e6567617469766560c01b6020918201528151908201209091507fa3a1d0e0438cb1bd55d8d3cbdf51489ce23e1053865c4091ecfc3d473f333d1c01610af657610af1610c19565b610afe565b610afe610c44565b7faf2b2381ddcb18a2b18a7826186fd216acdd9c852a8c7a9a49e7eab127f96ccf888360010154846002018a8a8a8a6040516104ad9796959493929190611401565b600460205260009081526040902080546104d89061102a565b60608160005b8151811015610c12576041828281518110610b7c57610b7c6114cc565b016020015160f81c10801590610bac5750605a828281518110610ba157610ba16114cc565b016020015160f81c11155b15610c0a57818181518110610bc357610bc36114cc565b602001015160f81c60f81b60f81c6020610bdd91906114e2565b60f81b828281518110610bf257610bf26114cc565b60200101906001600160f81b031916908160001a9053505b600101610b5f565b5092915050565b6040805180820190915260048152631cd95b1b60e21b6020820152600690610c4190826110ca565b50565b60408051808201909152600481526304b6565760e41b6020820152600690610c4190826110ca565b60008083601f840112610c7e57600080fd5b5081356001600160401b03811115610c9557600080fd5b602083019150836020828501011115610cad57600080fd5b9250929050565b60008060208385031215610cc757600080fd5b82356001600160401b03811115610cdd57600080fd5b610ce985828601610c6c565b90969095509350505050565b600060208284031215610d0757600080fd5b5035919050565b6000815180845260005b81811015610d3457602081850181015186830182015201610d18565b506000602082860101526020601f19601f83011685010191505092915050565b602081526000610d676020830184610d0e565b9392505050565b600060208284031215610d8057600080fd5b81356001600160401b0381168114610d6757600080fd5b60018060a01b0385168152836020820152608060408201526000610dbe6080830185610d0e565b8281036060840152610dd08185610d0e565b979650505050505050565b634e487b7160e01b600052604160045260246000fd5b60008060408385031215610e0457600080fd5b8235915060208301356001600160401b0380821115610e2257600080fd5b818501915085601f830112610e3657600080fd5b813581811115610e4857610e48610ddb565b604051601f8201601f19908116603f01168101908382118183101715610e7057610e70610ddb565b81604052828152886020848701011115610e8957600080fd5b8260208601602083013760006020848301015280955050505050509250929050565b600080600080600060608688031215610ec357600080fd5b8535945060208601356001600160401b0380821115610ee157600080fd5b610eed89838a01610c6c565b90965094506040880135915080821115610f0657600080fd5b50610f1388828901610c6c565b969995985093965092949392505050565b7f416e616c797a65207468652073656e74696d656e74206f662074686520666f6c81527f6c6f77696e67207465787420616e6420726573706f6e642077697468206f6e6c60208201527f792027706f73697469766527206f7220276e65676174697665273a0a0a00000060408201528183605d8301376b050529b2b73a34b6b2b73a1d60a11b9101605d810191909152606901919050565b85815260a060208201526000610fd560a0830187610d0e565b6001600160a01b03861660408401526001600160401b038516606084015282810360808401526110058185610d0e565b98975050505050505050565b60006020828403121561102357600080fd5b5051919050565b600181811c9082168061103e57607f821691505b60208210810361105e57634e487b7160e01b600052602260045260246000fd5b50919050565b601f8211156110b0576000816000526020600020601f850160051c8101602086101561108d5750805b601f850160051c820191505b818110156110ac57828155600101611099565b5050505b505050565b600019600383901b1c191660019190911b1790565b81516001600160401b038111156110e3576110e3610ddb565b6110f7816110f1845461102a565b84611064565b602080601f83116001811461112657600084156111145750858301515b61111e85826110b5565b8655506110ac565b600085815260208120601f198616915b8281101561115557888601518255948401946001909101908401611136565b50858210156111735787850151600019600388901b60f8161c191681555b5050505050600190811b01905550565b84815260018060a01b03841660208201528260408201526080606082015260006111b06080830184610d0e565b9695505050505050565b6000602082840312156111cc57600080fd5b81518015158114610d6757600080fd5b6001600160401b038311156111f3576111f3610ddb565b61120783611201835461102a565b83611064565b6000601f84116001811461123557600085156112235750838201355b61122d86826110b5565b84555061128f565b600083815260209020601f19861690835b828110156112665786850135825560209485019460019092019101611246565b50868210156112835760001960f88860031b161c19848701351681555b505060018560011b0183555b5050505050565b60008083546112a48161102a565b600182811680156112bc57600181146112d157611300565b60ff1984168752821515830287019450611300565b8760005260208060002060005b858110156112f75781548a8201529084019082016112de565b50505082870194505b50929695505050505050565b818103611317575050565b611321825461102a565b6001600160401b0381111561133857611338610ddb565b611346816110f1845461102a565b6000601f82116001811461137457600083156113625750848201545b61136c84826110b5565b85555061128f565b600085815260209020601f19841690600086815260209020845b838110156113ae578286015482556001958601959091019060200161138e565b50858310156111735793015460001960f8600387901b161c19169092555050600190811b01905550565b81835281816020850137506000828201602090810191909152601f909101601f19169091010190565b8781526000602088602084015260a06040840152600088546114228161102a565b8060a087015260c0600180841660008114611444576001811461146057611490565b60ff19851660c08a015260c084151560051b8a01019550611490565b8d600052602060002060005b858110156114875781548b820186015290830190880161146c565b8a0160c0019650505b505050505083810360608501526114a881888a6113d8565b91505082810360808401526114be8185876113d8565b9a9950505050505050505050565b634e487b7160e01b600052603260045260246000fd5b60ff81811683821601908111156105e557634e487b7160e01b600052601160045260246000fdfea264697066735822122068d555d06d23b8a099411f7702838aceb65b3facc0f8c7aa6920cf324ee1872d64736f6c63430008190033","linkReferences":{}},"methodIdentifiers":{"aiOracle()":"31b221cd","aiOracleCallback(uint256,bytes,bytes)":"b0347814","analyzeSentiment(string)":"03a5ffc7","callbackGasLimit(uint256)":"20f38718","estimateFee()":"7f18dc85","getInvestmentDecision()":"6f3be211","getLatestPrompt()":"ad39277e","getLatestResponse()":"a814e34f","isFinalized(uint256)":"33727c4d","latestPrompts(uint256)":"e6c2fa34","latestResponses(uint256)":"11f7777f","modelId()":"43cdaad2","prompts(uint256,string)":"8cbc52d9","requests(uint256)":"81d12c58","setCallbackGasLimit(uint64)":"6ec31914"},"id":23}