{"abi":[{"type":"constructor","inputs":[{"name":"_aiOracle","type":"address","internalType":"contract IAIOracle"}],"stateMutability":"nonpayable"},{"type":"function","name":"aiOracle","inputs":[],"outputs":[{"name":"","type":"address","internalType":"contract IAIOracle"}],"stateMutability":"view"},{"type":"function","name":"aiOracleCallback","inputs":[{"name":"requestId","type":"uint256","internalType":"uint256"},{"name":"output","type":"bytes","internalType":"bytes"},{"name":"callbackData","type":"bytes","internalType":"bytes"}],"outputs":[],"stateMutability":"nonpayable"},{"type":"function","name":"callbackGasLimit","inputs":[{"name":"","type":"uint256","internalType":"uint256"}],"outputs":[{"name":"","type":"uint64","internalType":"uint64"}],"stateMutability":"view"},{"type":"function","name":"estimateFee","inputs":[],"outputs":[{"name":"","type":"uint256","internalType":"uint256"}],"stateMutability":"view"},{"type":"function","name":"getAIResult","inputs":[{"name":"prompt","type":"string","internalType":"string"}],"outputs":[{"name":"","type":"string","internalType":"string"}],"stateMutability":"view"},{"type":"function","name":"getLatestPrompt","inputs":[],"outputs":[{"name":"","type":"string","internalType":"string"}],"stateMutability":"view"},{"type":"function","name":"getLatestResponse","inputs":[],"outputs":[{"name":"","type":"string","internalType":"string"}],"stateMutability":"view"},{"type":"function","name":"isFinalized","inputs":[{"name":"requestId","type":"uint256","internalType":"uint256"}],"outputs":[{"name":"","type":"bool","internalType":"bool"}],"stateMutability":"view"},{"type":"function","name":"latestPrompts","inputs":[{"name":"","type":"uint256","internalType":"uint256"}],"outputs":[{"name":"","type":"string","internalType":"string"}],"stateMutability":"view"},{"type":"function","name":"latestResponses","inputs":[{"name":"","type":"uint256","internalType":"uint256"}],"outputs":[{"name":"","type":"string","internalType":"string"}],"stateMutability":"view"},{"type":"function","name":"modelId","inputs":[],"outputs":[{"name":"","type":"uint256","internalType":"uint256"}],"stateMutability":"view"},{"type":"function","name":"prompts","inputs":[{"name":"","type":"uint256","internalType":"uint256"},{"name":"","type":"string","internalType":"string"}],"outputs":[{"name":"","type":"string","internalType":"string"}],"stateMutability":"view"},{"type":"function","name":"requests","inputs":[{"name":"","type":"uint256","internalType":"uint256"}],"outputs":[{"name":"sender","type":"address","internalType":"address"},{"name":"modelId","type":"uint256","internalType":"uint256"},{"name":"input","type":"bytes","internalType":"bytes"},{"name":"output","type":"bytes","internalType":"bytes"}],"stateMutability":"view"},{"type":"function","name":"setCallbackGasLimit","inputs":[{"name":"gasLimit","type":"uint64","internalType":"uint64"}],"outputs":[],"stateMutability":"nonpayable"},{"type":"function","name":"summarizeInvestment","inputs":[{"name":"jsonData","type":"string","internalType":"string"}],"outputs":[],"stateMutability":"payable"},{"type":"event","name":"promptRequest","inputs":[{"name":"requestId","type":"uint256","indexed":false,"internalType":"uint256"},{"name":"sender","type":"address","indexed":false,"internalType":"address"},{"name":"modelId","type":"uint256","indexed":false,"internalType":"uint256"},{"name":"prompt","type":"string","indexed":false,"internalType":"string"}],"anonymous":false},{"type":"event","name":"promptsUpdated","inputs":[{"name":"requestId","type":"uint256","indexed":false,"internalType":"uint256"},{"name":"modelId","type":"uint256","indexed":false,"internalType":"uint256"},{"name":"input","type":"string","indexed":false,"internalType":"string"},{"name":"output","type":"string","indexed":false,"internalType":"string"},{"name":"callbackData","type":"bytes","indexed":false,"internalType":"bytes"}],"anonymous":false},{"type":"error","name":"UnauthorizedCallbackSource","inputs":[{"name":"expected","type":"address","internalType":"contract IAIOracle"},{"name":"found","type":"address","internalType":"contract IAIOracle"}]}],"bytecode":{"object":"0x60a0604052600b600255348015601457600080fd5b506040516116a13803806116a1833981016040819052603191607f565b6001600160a01b0316608052600b60005260016020527ffc80cd5fe514767bc6e66ec558e68a5429ea70b50fa6caa3b53fc9278e91863280546001600160401b031916624c4b4017905560ad565b600060208284031215609057600080fd5b81516001600160a01b038116811460a657600080fd5b9392505050565b6080516115b66100eb6000396000818161018301528181610415015281816104c501528181610848015281816108850152610a7d01526115b66000f3fe6080604052600436106100e85760003560e01c806381d12c581161008a578063aff0396b11610059578063aff0396b146102ef578063b03478141461030f578063e6c2fa341461032f578063f3bc5e381461034f57600080fd5b806381d12c58146102755780638cbc52d9146102a5578063a814e34f146102c5578063ad39277e146102da57600080fd5b806333727c4d116100c657806333727c4d146101bd57806343cdaad2146101ed5780636ec31914146102115780637f18dc851461026057600080fd5b806311f7777f146100ed57806320f387181461012357806331b221cd14610171575b600080fd5b3480156100f957600080fd5b5061010d610108366004610b87565b610362565b60405161011a9190610be6565b60405180910390f35b34801561012f57600080fd5b5061015961013e366004610b87565b6001602052600090815260409020546001600160401b031681565b6040516001600160401b03909116815260200161011a565b34801561017d57600080fd5b506101a57f000000000000000000000000000000000000000000000000000000000000000081565b6040516001600160a01b03909116815260200161011a565b3480156101c957600080fd5b506101dd6101d8366004610b87565b6103fc565b604051901515815260200161011a565b3480156101f957600080fd5b5061020360025481565b60405190815260200161011a565b34801561021d57600080fd5b5061025e61022c366004610c00565b6002546000908152600160205260409020805467ffffffffffffffff19166001600160401b0392909216919091179055565b005b34801561026c57600080fd5b5061020361048e565b34801561028157600080fd5b50610295610290366004610b87565b61053c565b60405161011a9493929190610c29565b3480156102b157600080fd5b5061010d6102c0366004610c83565b61067f565b3480156102d157600080fd5b5061010d6106b4565b3480156102e657600080fd5b5061010d610757565b3480156102fb57600080fd5b5061010d61030a366004610d85565b610777565b34801561031b57600080fd5b5061025e61032a366004610dc6565b61083d565b34801561033b57600080fd5b5061010d61034a366004610b87565b610a06565b61025e61035d366004610d85565b610a1f565b6005602052600090815260409020805461037b90610e3f565b80601f01602080910402602001604051908101604052809291908181526020018280546103a790610e3f565b80156103f45780601f106103c9576101008083540402835291602001916103f4565b820191906000526020600020905b8154815290600101906020018083116103d757829003601f168201915b505050505081565b6040516333727c4d60e01b8152600481018290526000907f00000000000000000000000000000000000000000000000000000000000000006001600160a01b0316906333727c4d90602401602060405180830381865afa158015610464573d6000803e3d6000fd5b505050506040513d601f19601f820116820180604052508101906104889190610e79565b92915050565b600254600081815260016020526040808220549051620e1d8d60e41b815260048101939093526001600160401b03166024830152907f00000000000000000000000000000000000000000000000000000000000000006001600160a01b03169062e1d8d090604401602060405180830381865afa158015610513573d6000803e3d6000fd5b505050506040513d601f19601f820116820180604052508101906105379190610e9b565b905090565b6000602081905290815260409020805460018201546002830180546001600160a01b0390931693919261056e90610e3f565b80601f016020809104026020016040519081016040528092919081815260200182805461059a90610e3f565b80156105e75780601f106105bc576101008083540402835291602001916105e7565b820191906000526020600020905b8154815290600101906020018083116105ca57829003601f168201915b5050505050908060030180546105fc90610e3f565b80601f016020809104026020016040519081016040528092919081815260200182805461062890610e3f565b80156106755780601f1061064a57610100808354040283529160200191610675565b820191906000526020600020905b81548152906001019060200180831161065857829003601f168201915b5050505050905084565b600360209081526000928352604090922081518083018401805192815290840192909301919091209152805461037b90610e3f565b60025460009081526005602052604090208054606091906106d490610e3f565b80601f016020809104026020016040519081016040528092919081815260200182805461070090610e3f565b801561074d5780601f106107225761010080835404028352916020019161074d565b820191906000526020600020905b81548152906001019060200180831161073057829003601f168201915b5050505050905090565b60025460009081526004602052604090208054606091906106d490610e3f565b6060600360006002548152602001908152602001600020838360405161079e929190610eb4565b908152602001604051809103902080546107b790610e3f565b80601f01602080910402602001604051908101604052809291908181526020018280546107e390610e3f565b80156108305780601f1061080557610100808354040283529160200191610830565b820191906000526020600020905b81548152906001019060200180831161081357829003601f168201915b5050505050905092915050565b336001600160a01b037f00000000000000000000000000000000000000000000000000000000000000001681146108bf5760405163432e033760e11b81526001600160a01b037f000000000000000000000000000000000000000000000000000000000000000081166004830152821660248201526044015b60405180910390fd5b600086815260208190526040902080546001600160a01b031661091d5760405162461bcd60e51b81526020600482015260166024820152751c995c5d595cdd08191bd95cc81b9bdd08195e1a5cdd60521b60448201526064016108b6565b6003810161092c868883610f2a565b5085856003600084600101548152602001908152602001600020836002016040516109579190610fe4565b90815260200160405180910390209182610972929190610f2a565b5060018101546000908152600460205260409020610993600283018261105a565b50600181015460009081526005602052604090206109b2868883610f2a565b507faf2b2381ddcb18a2b18a7826186fd216acdd9c852a8c7a9a49e7eab127f96ccf87826001015483600201898989896040516109f59796959493929190611159565b60405180910390a150505050505050565b6004602052600090815260409020805461037b90610e3f565b60008282604051602001610a34929190611224565b60408051601f198184030181526020838101835260008085526002548082526001909252838120549351632dca9c0360e11b815292955085943094909391926001600160a01b037f00000000000000000000000000000000000000000000000000000000000000001692635b953806923492610ac49290918a918a916001600160401b0316908a90600401611443565b60206040518083038185885af1158015610ae2573d6000803e3d6000fd5b50505050506040513d601f19601f82011682018060405250810190610b079190610e9b565b600081815260208190526040902090915060028101610b268682611498565b5080546001600160a01b031916339081178255600254600183018190556040517fa0faead83d70148ae18b694377f9bef079251342ab90e14af0f9ef68b891269f92610b759286928b90611549565b60405180910390a15050505050505050565b600060208284031215610b9957600080fd5b5035919050565b6000815180845260005b81811015610bc657602081850181015186830182015201610baa565b506000602082860101526020601f19601f83011685010191505092915050565b602081526000610bf96020830184610ba0565b9392505050565b600060208284031215610c1257600080fd5b81356001600160401b0381168114610bf957600080fd5b60018060a01b0385168152836020820152608060408201526000610c506080830185610ba0565b8281036060840152610c628185610ba0565b979650505050505050565b634e487b7160e01b600052604160045260246000fd5b60008060408385031215610c9657600080fd5b8235915060208301356001600160401b0380821115610cb457600080fd5b818501915085601f830112610cc857600080fd5b813581811115610cda57610cda610c6d565b604051601f8201601f19908116603f01168101908382118183101715610d0257610d02610c6d565b81604052828152886020848701011115610d1b57600080fd5b8260208601602083013760006020848301015280955050505050509250929050565b60008083601f840112610d4f57600080fd5b5081356001600160401b03811115610d6657600080fd5b602083019150836020828501011115610d7e57600080fd5b9250929050565b60008060208385031215610d9857600080fd5b82356001600160401b03811115610dae57600080fd5b610dba85828601610d3d565b90969095509350505050565b600080600080600060608688031215610dde57600080fd5b8535945060208601356001600160401b0380821115610dfc57600080fd5b610e0889838a01610d3d565b90965094506040880135915080821115610e2157600080fd5b50610e2e88828901610d3d565b969995985093965092949392505050565b600181811c90821680610e5357607f821691505b602082108103610e7357634e487b7160e01b600052602260045260246000fd5b50919050565b600060208284031215610e8b57600080fd5b81518015158114610bf957600080fd5b600060208284031215610ead57600080fd5b5051919050565b8183823760009101908152919050565b601f821115610f10576000816000526020600020601f850160051c81016020861015610eed5750805b601f850160051c820191505b81811015610f0c57828155600101610ef9565b5050505b505050565b600019600383901b1c191660019190911b1790565b6001600160401b03831115610f4157610f41610c6d565b610f5583610f4f8354610e3f565b83610ec4565b6000601f841160018114610f835760008515610f715750838201355b610f7b8682610f15565b845550610fdd565b600083815260209020601f19861690835b82811015610fb45786850135825560209485019460019092019101610f94565b5086821015610fd15760001960f88860031b161c19848701351681555b505060018560011b0183555b5050505050565b6000808354610ff281610e3f565b6001828116801561100a576001811461101f5761104e565b60ff198416875282151583028701945061104e565b8760005260208060002060005b858110156110455781548a82015290840190820161102c565b50505082870194505b50929695505050505050565b818103611065575050565b61106f8254610e3f565b6001600160401b0381111561108657611086610c6d565b61109a816110948454610e3f565b84610ec4565b6000601f8211600181146110c857600083156110b65750848201545b6110c08482610f15565b855550610fdd565b600085815260209020601f19841690600086815260209020845b8381101561110257828601548255600195860195909101906020016110e2565b50858310156111205781850154600019600388901b60f8161c191681555b5050505050600190811b01905550565b81835281816020850137506000828201602090810191909152601f909101601f19169091010190565b8781526000602088602084015260a060408401526000885461117a81610e3f565b8060a087015260c060018084166000811461119c57600181146111b8576111e8565b60ff19851660c08a015260c084151560051b8a010195506111e8565b8d600052602060002060005b858110156111df5781548b82018601529083019088016111c4565b8a0160c0019650505b5050505050838103606085015261120081888a611130565b9150508281036080840152611216818587611130565b9a9950505050505050505050565b7f4865726520796f752068617665207468652063727970746f2077616c6c657420815275383937ba3337b634b79037b31030903ab9b2b917050560511b60208201528183603683013760008282017f0a0a506c656173652070726f76696465206120636f6d70726568656e7369766560368201527f206578706c616e6174696f6e20666f722074686520706f7274666f6c696f206f60568201526a33103a3432903ab9b2b91760a91b60768201527f436f6e73696465722074686520666f6c6c6f77696e6720706f696e747320696e60818201526f103cb7bab91030b730b63cb9b4b99d0560811b60a18201527f312e20412073696d706c65206465736372697074696f6e206f6620616c6c207460b18201527f6865206173736574732074686520757365722068617320746f6b656e730a000060d18201527f322e20412073696d706c6520616e616c79736973206f6620746865207573657260ef8201527f277320696e766573746d656e742073747261746567792069662068697320706f61010f8201527f7274666f6c696f206973206469766572736966696564206f72206e6f740a000061012f82015261143a61014d82017f332e20506f74656e7469616c207269736b7320616e642062656e65666974732081527f696620686520686173206120646976657273696669656420706f7274666f6c69602082015268379037b9103737ba0560b91b604082015260490190565b95945050505050565b85815260a06020820152600061145c60a0830187610ba0565b6001600160a01b03861660408401526001600160401b0385166060840152828103608084015261148c8185610ba0565b98975050505050505050565b81516001600160401b038111156114b1576114b1610c6d565b6114bf816110948454610e3f565b602080601f8311600181146114ee57600084156114dc5750858301515b6114e68582610f15565b865550610f0c565b600085815260208120601f198616915b8281101561151d578886015182559484019460019091019084016114fe565b508582101561112057939096015160001960f8600387901b161c19169092555050600190811b01905550565b84815260018060a01b03841660208201528260408201526080606082015260006115766080830184610ba0565b969550505050505056fea264697066735822122056b5644bc580c4064df924f6fe533d845baf838767893f2df3f6581693d20f5e64736f6c63430008190033","linkReferences":{}},"methodIdentifiers":{"aiOracle()":"31b221cd","aiOracleCallback(uint256,bytes,bytes)":"b0347814","callbackGasLimit(uint256)":"20f38718","estimateFee()":"7f18dc85","getAIResult(string)":"aff0396b","getLatestPrompt()":"ad39277e","getLatestResponse()":"a814e34f","isFinalized(uint256)":"33727c4d","latestPrompts(uint256)":"e6c2fa34","latestResponses(uint256)":"11f7777f","modelId()":"43cdaad2","prompts(uint256,string)":"8cbc52d9","requests(uint256)":"81d12c58","setCallbackGasLimit(uint64)":"6ec31914","summarizeInvestment(string)":"f3bc5e38"},"id":25}