{"abi":[{"type":"constructor","inputs":[{"name":"_aiOracle","type":"address","internalType":"contract IAIOracle"}],"stateMutability":"nonpayable"},{"type":"function","name":"aiOracle","inputs":[],"outputs":[{"name":"","type":"address","internalType":"contract IAIOracle"}],"stateMutability":"view"},{"type":"function","name":"aiOracleCallback","inputs":[{"name":"requestId","type":"uint256","internalType":"uint256"},{"name":"output","type":"bytes","internalType":"bytes"},{"name":"callbackData","type":"bytes","internalType":"bytes"}],"outputs":[],"stateMutability":"nonpayable"},{"type":"function","name":"callbackGasLimit","inputs":[{"name":"","type":"uint256","internalType":"uint256"}],"outputs":[{"name":"","type":"uint64","internalType":"uint64"}],"stateMutability":"view"},{"type":"function","name":"estimateFee","inputs":[],"outputs":[{"name":"","type":"uint256","internalType":"uint256"}],"stateMutability":"view"},{"type":"function","name":"getAIResult","inputs":[{"name":"prompt","type":"string","internalType":"string"}],"outputs":[{"name":"","type":"string","internalType":"string"}],"stateMutability":"view"},{"type":"function","name":"getCount","inputs":[],"outputs":[{"name":"","type":"uint256","internalType":"uint256"}],"stateMutability":"view"},{"type":"function","name":"getLatestPrompt","inputs":[],"outputs":[{"name":"","type":"string","internalType":"string"}],"stateMutability":"view"},{"type":"function","name":"getLatestResponse","inputs":[],"outputs":[{"name":"","type":"string","internalType":"string"}],"stateMutability":"view"},{"type":"function","name":"isFinalized","inputs":[{"name":"requestId","type":"uint256","internalType":"uint256"}],"outputs":[{"name":"","type":"bool","internalType":"bool"}],"stateMutability":"view"},{"type":"function","name":"latestPrompts","inputs":[{"name":"","type":"uint256","internalType":"uint256"}],"outputs":[{"name":"","type":"string","internalType":"string"}],"stateMutability":"view"},{"type":"function","name":"latestResponses","inputs":[{"name":"","type":"uint256","internalType":"uint256"}],"outputs":[{"name":"","type":"string","internalType":"string"}],"stateMutability":"view"},{"type":"function","name":"modelId","inputs":[],"outputs":[{"name":"","type":"uint256","internalType":"uint256"}],"stateMutability":"view"},{"type":"function","name":"prompts","inputs":[{"name":"","type":"uint256","internalType":"uint256"},{"name":"","type":"string","internalType":"string"}],"outputs":[{"name":"","type":"string","internalType":"string"}],"stateMutability":"view"},{"type":"function","name":"requests","inputs":[{"name":"","type":"uint256","internalType":"uint256"}],"outputs":[{"name":"sender","type":"address","internalType":"address"},{"name":"modelId","type":"uint256","internalType":"uint256"},{"name":"input","type":"bytes","internalType":"bytes"},{"name":"output","type":"bytes","internalType":"bytes"}],"stateMutability":"view"},{"type":"function","name":"setCallbackGasLimit","inputs":[{"name":"gasLimit","type":"uint64","internalType":"uint64"}],"outputs":[],"stateMutability":"nonpayable"},{"type":"function","name":"summarizeInvestment","inputs":[{"name":"jsonData","type":"string","internalType":"string"}],"outputs":[],"stateMutability":"payable"},{"type":"event","name":"promptRequest","inputs":[{"name":"requestId","type":"uint256","indexed":false,"internalType":"uint256"},{"name":"sender","type":"address","indexed":false,"internalType":"address"},{"name":"modelId","type":"uint256","indexed":false,"internalType":"uint256"},{"name":"prompt","type":"string","indexed":false,"internalType":"string"}],"anonymous":false},{"type":"event","name":"promptsUpdated","inputs":[{"name":"requestId","type":"uint256","indexed":false,"internalType":"uint256"},{"name":"modelId","type":"uint256","indexed":false,"internalType":"uint256"},{"name":"input","type":"string","indexed":false,"internalType":"string"},{"name":"output","type":"string","indexed":false,"internalType":"string"},{"name":"callbackData","type":"bytes","indexed":false,"internalType":"bytes"}],"anonymous":false},{"type":"error","name":"UnauthorizedCallbackSource","inputs":[{"name":"expected","type":"address","internalType":"contract IAIOracle"},{"name":"found","type":"address","internalType":"contract IAIOracle"}]}],"bytecode":{"object":"0x60a0604052600b6002556000600655348015601957600080fd5b506040516117023803806117028339810160408190526036916084565b6001600160a01b0316608052600b60005260016020527ffc80cd5fe514767bc6e66ec558e68a5429ea70b50fa6caa3b53fc9278e91863280546001600160401b031916624c4b4017905560b2565b600060208284031215609557600080fd5b81516001600160a01b038116811460ab57600080fd5b9392505050565b6080516116126100f06000396000818161018e01528181610435015281816104e501528181610868015281816108a50152610ab201526116126000f3fe6080604052600436106100f35760003560e01c80638cbc52d91161008a578063aff0396b11610059578063aff0396b1461030f578063b03478141461032f578063e6c2fa341461034f578063f3bc5e381461036f57600080fd5b80638cbc52d9146102b0578063a814e34f146102d0578063a87d942c146102e5578063ad39277e146102fa57600080fd5b806343cdaad2116100c657806343cdaad2146101f85780636ec319141461021c5780637f18dc851461026b57806381d12c581461028057600080fd5b806311f7777f146100f857806320f387181461012e57806331b221cd1461017c57806333727c4d146101c8575b600080fd5b34801561010457600080fd5b50610118610113366004610bbc565b610382565b6040516101259190610c1b565b60405180910390f35b34801561013a57600080fd5b50610164610149366004610bbc565b6001602052600090815260409020546001600160401b031681565b6040516001600160401b039091168152602001610125565b34801561018857600080fd5b506101b07f000000000000000000000000000000000000000000000000000000000000000081565b6040516001600160a01b039091168152602001610125565b3480156101d457600080fd5b506101e86101e3366004610bbc565b61041c565b6040519015158152602001610125565b34801561020457600080fd5b5061020e60025481565b604051908152602001610125565b34801561022857600080fd5b50610269610237366004610c35565b6002546000908152600160205260409020805467ffffffffffffffff19166001600160401b0392909216919091179055565b005b34801561027757600080fd5b5061020e6104ae565b34801561028c57600080fd5b506102a061029b366004610bbc565b61055c565b6040516101259493929190610c5e565b3480156102bc57600080fd5b506101186102cb366004610cb8565b61069f565b3480156102dc57600080fd5b506101186106d4565b3480156102f157600080fd5b5060065461020e565b34801561030657600080fd5b50610118610777565b34801561031b57600080fd5b5061011861032a366004610dba565b610797565b34801561033b57600080fd5b5061026961034a366004610dfb565b61085d565b34801561035b57600080fd5b5061011861036a366004610bbc565b610a3b565b61026961037d366004610dba565b610a54565b6005602052600090815260409020805461039b90610e74565b80601f01602080910402602001604051908101604052809291908181526020018280546103c790610e74565b80156104145780601f106103e957610100808354040283529160200191610414565b820191906000526020600020905b8154815290600101906020018083116103f757829003601f168201915b505050505081565b6040516333727c4d60e01b8152600481018290526000907f00000000000000000000000000000000000000000000000000000000000000006001600160a01b0316906333727c4d90602401602060405180830381865afa158015610484573d6000803e3d6000fd5b505050506040513d601f19601f820116820180604052508101906104a89190610eae565b92915050565b600254600081815260016020526040808220549051620e1d8d60e41b815260048101939093526001600160401b03166024830152907f00000000000000000000000000000000000000000000000000000000000000006001600160a01b03169062e1d8d090604401602060405180830381865afa158015610533573d6000803e3d6000fd5b505050506040513d601f19601f820116820180604052508101906105579190610ed0565b905090565b6000602081905290815260409020805460018201546002830180546001600160a01b0390931693919261058e90610e74565b80601f01602080910402602001604051908101604052809291908181526020018280546105ba90610e74565b80156106075780601f106105dc57610100808354040283529160200191610607565b820191906000526020600020905b8154815290600101906020018083116105ea57829003601f168201915b50505050509080600301805461061c90610e74565b80601f016020809104026020016040519081016040528092919081815260200182805461064890610e74565b80156106955780601f1061066a57610100808354040283529160200191610695565b820191906000526020600020905b81548152906001019060200180831161067857829003601f168201915b5050505050905084565b600360209081526000928352604090922081518083018401805192815290840192909301919091209152805461039b90610e74565b60025460009081526005602052604090208054606091906106f490610e74565b80601f016020809104026020016040519081016040528092919081815260200182805461072090610e74565b801561076d5780601f106107425761010080835404028352916020019161076d565b820191906000526020600020905b81548152906001019060200180831161075057829003601f168201915b5050505050905090565b60025460009081526004602052604090208054606091906106f490610e74565b606060036000600254815260200190815260200160002083836040516107be929190610ee9565b908152602001604051809103902080546107d790610e74565b80601f016020809104026020016040519081016040528092919081815260200182805461080390610e74565b80156108505780601f1061082557610100808354040283529160200191610850565b820191906000526020600020905b81548152906001019060200180831161083357829003601f168201915b5050505050905092915050565b336001600160a01b037f00000000000000000000000000000000000000000000000000000000000000001681146108df5760405163432e033760e11b81526001600160a01b037f000000000000000000000000000000000000000000000000000000000000000081166004830152821660248201526044015b60405180910390fd5b600086815260208190526040902080546001600160a01b031661093d5760405162461bcd60e51b81526020600482015260166024820152751c995c5d595cdd08191bd95cc81b9bdd08195e1a5cdd60521b60448201526064016108d6565b6003810161094c868883610f5f565b5085856003600084600101548152602001908152602001600020836002016040516109779190611019565b90815260200160405180910390209182610992929190610f5f565b50600181015460009081526004602052604090206109b3600283018261108f565b50600181015460009081526005602052604090206109d2868883610f5f565b50600680549060006109e383611165565b91905055507faf2b2381ddcb18a2b18a7826186fd216acdd9c852a8c7a9a49e7eab127f96ccf8782600101548360020189898989604051610a2a97969594939291906111b5565b60405180910390a150505050505050565b6004602052600090815260409020805461039b90610e74565b60008282604051602001610a69929190611280565b60408051601f198184030181526020838101835260008085526002548082526001909252838120549351632dca9c0360e11b815292955085943094909391926001600160a01b037f00000000000000000000000000000000000000000000000000000000000000001692635b953806923492610af99290918a918a916001600160401b0316908a9060040161149f565b60206040518083038185885af1158015610b17573d6000803e3d6000fd5b50505050506040513d601f19601f82011682018060405250810190610b3c9190610ed0565b600081815260208190526040902090915060028101610b5b86826114f4565b5080546001600160a01b031916339081178255600254600183018190556040517fa0faead83d70148ae18b694377f9bef079251342ab90e14af0f9ef68b891269f92610baa9286928b906115a5565b60405180910390a15050505050505050565b600060208284031215610bce57600080fd5b5035919050565b6000815180845260005b81811015610bfb57602081850181015186830182015201610bdf565b506000602082860101526020601f19601f83011685010191505092915050565b602081526000610c2e6020830184610bd5565b9392505050565b600060208284031215610c4757600080fd5b81356001600160401b0381168114610c2e57600080fd5b60018060a01b0385168152836020820152608060408201526000610c856080830185610bd5565b8281036060840152610c978185610bd5565b979650505050505050565b634e487b7160e01b600052604160045260246000fd5b60008060408385031215610ccb57600080fd5b8235915060208301356001600160401b0380821115610ce957600080fd5b818501915085601f830112610cfd57600080fd5b813581811115610d0f57610d0f610ca2565b604051601f8201601f19908116603f01168101908382118183101715610d3757610d37610ca2565b81604052828152886020848701011115610d5057600080fd5b8260208601602083013760006020848301015280955050505050509250929050565b60008083601f840112610d8457600080fd5b5081356001600160401b03811115610d9b57600080fd5b602083019150836020828501011115610db357600080fd5b9250929050565b60008060208385031215610dcd57600080fd5b82356001600160401b03811115610de357600080fd5b610def85828601610d72565b90969095509350505050565b600080600080600060608688031215610e1357600080fd5b8535945060208601356001600160401b0380821115610e3157600080fd5b610e3d89838a01610d72565b90965094506040880135915080821115610e5657600080fd5b50610e6388828901610d72565b969995985093965092949392505050565b600181811c90821680610e8857607f821691505b602082108103610ea857634e487b7160e01b600052602260045260246000fd5b50919050565b600060208284031215610ec057600080fd5b81518015158114610c2e57600080fd5b600060208284031215610ee257600080fd5b5051919050565b8183823760009101908152919050565b601f821115610f45576000816000526020600020601f850160051c81016020861015610f225750805b601f850160051c820191505b81811015610f4157828155600101610f2e565b5050505b505050565b600019600383901b1c191660019190911b1790565b6001600160401b03831115610f7657610f76610ca2565b610f8a83610f848354610e74565b83610ef9565b6000601f841160018114610fb85760008515610fa65750838201355b610fb08682610f4a565b845550611012565b600083815260209020601f19861690835b82811015610fe95786850135825560209485019460019092019101610fc9565b50868210156110065760001960f88860031b161c19848701351681555b505060018560011b0183555b5050505050565b600080835461102781610e74565b6001828116801561103f576001811461105457611083565b60ff1984168752821515830287019450611083565b8760005260208060002060005b8581101561107a5781548a820152908401908201611061565b50505082870194505b50929695505050505050565b81810361109a575050565b6110a48254610e74565b6001600160401b038111156110bb576110bb610ca2565b6110cf816110c98454610e74565b84610ef9565b6000601f8211600181146110fd57600083156110eb5750848201545b6110f58482610f4a565b855550611012565b600085815260209020601f19841690600086815260209020845b838110156111375782860154825560019586019590910190602001611117565b50858310156111555781850154600019600388901b60f8161c191681555b5050505050600190811b01905550565b60006001820161118557634e487b7160e01b600052601160045260246000fd5b5060010190565b81835281816020850137506000828201602090810191909152601f909101601f19169091010190565b8781526000602088602084015260a06040840152600088546111d681610e74565b8060a087015260c06001808416600081146111f8576001811461121457611244565b60ff19851660c08a015260c084151560051b8a01019550611244565b8d600052602060002060005b8581101561123b5781548b8201860152908301908801611220565b8a0160c0019650505b5050505050838103606085015261125c81888a61118c565b915050828103608084015261127281858761118c565b9a9950505050505050505050565b7f4865726520796f752068617665207468652063727970746f2077616c6c657420815275383937ba3337b634b79037b31030903ab9b2b917050560511b60208201528183603683013760008282017f0a0a506c656173652070726f76696465206120636f6d70726568656e7369766560368201527f206578706c616e6174696f6e20666f722074686520706f7274666f6c696f206f60568201526a33103a3432903ab9b2b91760a91b60768201527f436f6e73696465722074686520666f6c6c6f77696e6720706f696e747320696e60818201526f103cb7bab91030b730b63cb9b4b99d0560811b60a18201527f312e20412073696d706c65206465736372697074696f6e206f6620616c6c207460b18201527f6865206173736574732074686520757365722068617320746f6b656e730a000060d18201527f322e20412073696d706c6520616e616c79736973206f6620746865207573657260ef8201527f277320696e766573746d656e742073747261746567792069662068697320706f61010f8201527f7274666f6c696f206973206469766572736966696564206f72206e6f740a000061012f82015261149661014d82017f332e20506f74656e7469616c207269736b7320616e642062656e65666974732081527f696620686520686173206120646976657273696669656420706f7274666f6c69602082015268379037b9103737ba0560b91b604082015260490190565b95945050505050565b85815260a0602082015260006114b860a0830187610bd5565b6001600160a01b03861660408401526001600160401b038516606084015282810360808401526114e88185610bd5565b98975050505050505050565b81516001600160401b0381111561150d5761150d610ca2565b61151b816110c98454610e74565b602080601f83116001811461154a57600084156115385750858301515b6115428582610f4a565b865550610f41565b600085815260208120601f198616915b828110156115795788860151825594840194600190910190840161155a565b508582101561115557939096015160001960f8600387901b161c19169092555050600190811b01905550565b84815260018060a01b03841660208201528260408201526080606082015260006115d26080830184610bd5565b969550505050505056fea26469706673582212205eb79e9cb7d4a1907681e9f5db17e7ace99ecc0551083733fcbc5a5827b4eede64736f6c63430008190033","linkReferences":{}},"methodIdentifiers":{"aiOracle()":"31b221cd","aiOracleCallback(uint256,bytes,bytes)":"b0347814","callbackGasLimit(uint256)":"20f38718","estimateFee()":"7f18dc85","getAIResult(string)":"aff0396b","getCount()":"a87d942c","getLatestPrompt()":"ad39277e","getLatestResponse()":"a814e34f","isFinalized(uint256)":"33727c4d","latestPrompts(uint256)":"e6c2fa34","latestResponses(uint256)":"11f7777f","modelId()":"43cdaad2","prompts(uint256,string)":"8cbc52d9","requests(uint256)":"81d12c58","setCallbackGasLimit(uint64)":"6ec31914","summarizeInvestment(string)":"f3bc5e38"},"id":22}