{"abi":[{"type":"constructor","inputs":[{"name":"_aiOracle","type":"address","internalType":"contract IAIOracle"}],"stateMutability":"nonpayable"},{"type":"function","name":"aiOracle","inputs":[],"outputs":[{"name":"","type":"address","internalType":"contract IAIOracle"}],"stateMutability":"view"},{"type":"function","name":"aiOracleCallback","inputs":[{"name":"requestId","type":"uint256","internalType":"uint256"},{"name":"output","type":"bytes","internalType":"bytes"},{"name":"callbackData","type":"bytes","internalType":"bytes"}],"outputs":[],"stateMutability":"nonpayable"},{"type":"function","name":"callbackGasLimit","inputs":[{"name":"","type":"uint256","internalType":"uint256"}],"outputs":[{"name":"","type":"uint64","internalType":"uint64"}],"stateMutability":"view"},{"type":"function","name":"estimateFee","inputs":[],"outputs":[{"name":"","type":"uint256","internalType":"uint256"}],"stateMutability":"view"},{"type":"function","name":"getAIResult","inputs":[{"name":"prompt","type":"string","internalType":"string"}],"outputs":[{"name":"","type":"string","internalType":"string"}],"stateMutability":"view"},{"type":"function","name":"getLatestPrompt","inputs":[],"outputs":[{"name":"","type":"string","internalType":"string"}],"stateMutability":"view"},{"type":"function","name":"getLatestResponse","inputs":[],"outputs":[{"name":"","type":"string","internalType":"string"}],"stateMutability":"view"},{"type":"function","name":"isFinalized","inputs":[{"name":"requestId","type":"uint256","internalType":"uint256"}],"outputs":[{"name":"","type":"bool","internalType":"bool"}],"stateMutability":"view"},{"type":"function","name":"latestPrompts","inputs":[{"name":"","type":"uint256","internalType":"uint256"}],"outputs":[{"name":"","type":"string","internalType":"string"}],"stateMutability":"view"},{"type":"function","name":"latestResponses","inputs":[{"name":"","type":"uint256","internalType":"uint256"}],"outputs":[{"name":"","type":"string","internalType":"string"}],"stateMutability":"view"},{"type":"function","name":"modelId","inputs":[],"outputs":[{"name":"","type":"uint256","internalType":"uint256"}],"stateMutability":"view"},{"type":"function","name":"prompts","inputs":[{"name":"","type":"uint256","internalType":"uint256"},{"name":"","type":"string","internalType":"string"}],"outputs":[{"name":"","type":"string","internalType":"string"}],"stateMutability":"view"},{"type":"function","name":"requests","inputs":[{"name":"","type":"uint256","internalType":"uint256"}],"outputs":[{"name":"sender","type":"address","internalType":"address"},{"name":"modelId","type":"uint256","internalType":"uint256"},{"name":"input","type":"bytes","internalType":"bytes"},{"name":"output","type":"bytes","internalType":"bytes"}],"stateMutability":"view"},{"type":"function","name":"setCallbackGasLimit","inputs":[{"name":"gasLimit","type":"uint64","internalType":"uint64"}],"outputs":[],"stateMutability":"nonpayable"},{"type":"function","name":"summarizeInvestment","inputs":[{"name":"assets","type":"tuple[4]","internalType":"struct Summary.Asset[4]","components":[{"name":"tokenName","type":"string","internalType":"string"},{"name":"description","type":"string","internalType":"string"},{"name":"distribution","type":"uint8","internalType":"uint8"}]}],"outputs":[],"stateMutability":"payable"},{"type":"function","name":"summarizeProject","inputs":[{"name":"tokenName","type":"string","internalType":"string"}],"outputs":[],"stateMutability":"payable"},{"type":"event","name":"promptRequest","inputs":[{"name":"requestId","type":"uint256","indexed":false,"internalType":"uint256"},{"name":"sender","type":"address","indexed":false,"internalType":"address"},{"name":"modelId","type":"uint256","indexed":false,"internalType":"uint256"},{"name":"prompt","type":"string","indexed":false,"internalType":"string"}],"anonymous":false},{"type":"event","name":"promptsUpdated","inputs":[{"name":"requestId","type":"uint256","indexed":false,"internalType":"uint256"},{"name":"modelId","type":"uint256","indexed":false,"internalType":"uint256"},{"name":"input","type":"string","indexed":false,"internalType":"string"},{"name":"output","type":"string","indexed":false,"internalType":"string"},{"name":"callbackData","type":"bytes","indexed":false,"internalType":"bytes"}],"anonymous":false},{"type":"error","name":"UnauthorizedCallbackSource","inputs":[{"name":"expected","type":"address","internalType":"contract IAIOracle"},{"name":"found","type":"address","internalType":"contract IAIOracle"}]}],"bytecode":{"object":"0x60a0604052600b600255348015601457600080fd5b50604051612084380380612084833981016040819052603191607f565b6001600160a01b0316608052600b60005260016020527ffc80cd5fe514767bc6e66ec558e68a5429ea70b50fa6caa3b53fc9278e91863280546001600160401b031916624c4b4017905560ad565b600060208284031215609057600080fd5b81516001600160a01b038116811460a657600080fd5b9392505050565b608051611f926100f2600039600081816101a3015281816104b10152818161066e0152818161071e01528181610aa101528181610ade0152610cee0152611f926000f3fe6080604052600436106100f35760003560e01c806381d12c581161008a578063aff0396b11610059578063aff0396b1461030d578063b03478141461032d578063e6c2fa341461034d578063f91c1b0e1461036d57600080fd5b806381d12c58146102935780638cbc52d9146102c3578063a814e34f146102e3578063ad39277e146102f857600080fd5b806333727c4d116100c657806333727c4d146101dd57806343cdaad21461020d5780636ec31914146102315780637f18dc851461027e57600080fd5b8063012aec00146100f857806311f7777f1461010d57806320f387181461014357806331b221cd14610191575b600080fd5b61010b610106366004611031565b610380565b005b34801561011957600080fd5b5061012d610128366004611138565b6105bb565b60405161013a91906111a1565b60405180910390f35b34801561014f57600080fd5b5061017961015e366004611138565b6001602052600090815260409020546001600160401b031681565b6040516001600160401b03909116815260200161013a565b34801561019d57600080fd5b506101c57f000000000000000000000000000000000000000000000000000000000000000081565b6040516001600160a01b03909116815260200161013a565b3480156101e957600080fd5b506101fd6101f8366004611138565b610655565b604051901515815260200161013a565b34801561021957600080fd5b5061022360025481565b60405190815260200161013a565b34801561023d57600080fd5b5061010b61024c3660046111bb565b6002546000908152600160205260409020805467ffffffffffffffff19166001600160401b0392909216919091179055565b34801561028a57600080fd5b506102236106e7565b34801561029f57600080fd5b506102b36102ae366004611138565b610795565b60405161013a94939291906111e4565b3480156102cf57600080fd5b5061012d6102de366004611228565b6108d8565b3480156102ef57600080fd5b5061012d61090d565b34801561030457600080fd5b5061012d6109b0565b34801561031957600080fd5b5061012d6103283660046112b6565b6109d0565b34801561033957600080fd5b5061010b6103483660046112f7565b610a96565b34801561035957600080fd5b5061012d610368366004611138565b610c5a565b61010b61037b3660046112b6565b610c73565b6000805b60048110156103bc5782816004811061039f5761039f611370565b6020020151604001516103b2908361139c565b9150600101610384565b508060ff166064146104155760405162461bcd60e51b815260206004820152601c60248201527f446973747269627574696f6e206d75737420746f74616c20313030250000000060448201526064015b60405180910390fd5b8151600090610425906001610de5565b6020840151610435906002610de5565b6040850151610445906003610de5565b6060860151610455906004610de5565b60405160200161046894939291906113b5565b60408051601f198184030181526020838101835260008085526002548082526001909252838120549351632dca9c0360e11b815292955085943094909391926001600160a01b037f00000000000000000000000000000000000000000000000000000000000000001692635b9538069234926104f89290918a918a916001600160401b0316908a906004016117e7565b60206040518083038185885af1158015610516573d6000803e3d6000fd5b50505050506040513d601f19601f8201168201806040525081019061053b919061183c565b60008181526020819052604090209091506002810161055a86826118f5565b5080546001600160a01b031916339081178255600254600183018190556040517fa0faead83d70148ae18b694377f9bef079251342ab90e14af0f9ef68b891269f926105a99286928b906119ae565b60405180910390a15050505050505050565b600560205260009081526040902080546105d490611855565b80601f016020809104026020016040519081016040528092919081815260200182805461060090611855565b801561064d5780601f106106225761010080835404028352916020019161064d565b820191906000526020600020905b81548152906001019060200180831161063057829003601f168201915b505050505081565b6040516333727c4d60e01b8152600481018290526000907f00000000000000000000000000000000000000000000000000000000000000006001600160a01b0316906333727c4d90602401602060405180830381865afa1580156106bd573d6000803e3d6000fd5b505050506040513d601f19601f820116820180604052508101906106e191906119e5565b92915050565b600254600081815260016020526040808220549051620e1d8d60e41b815260048101939093526001600160401b03166024830152907f00000000000000000000000000000000000000000000000000000000000000006001600160a01b03169062e1d8d090604401602060405180830381865afa15801561076c573d6000803e3d6000fd5b505050506040513d601f19601f82011682018060405250810190610790919061183c565b905090565b6000602081905290815260409020805460018201546002830180546001600160a01b039093169391926107c790611855565b80601f01602080910402602001604051908101604052809291908181526020018280546107f390611855565b80156108405780601f1061081557610100808354040283529160200191610840565b820191906000526020600020905b81548152906001019060200180831161082357829003601f168201915b50505050509080600301805461085590611855565b80601f016020809104026020016040519081016040528092919081815260200182805461088190611855565b80156108ce5780601f106108a3576101008083540402835291602001916108ce565b820191906000526020600020905b8154815290600101906020018083116108b157829003601f168201915b5050505050905084565b60036020908152600092835260409092208151808301840180519281529084019290930191909120915280546105d490611855565b600254600090815260056020526040902080546060919061092d90611855565b80601f016020809104026020016040519081016040528092919081815260200182805461095990611855565b80156109a65780601f1061097b576101008083540402835291602001916109a6565b820191906000526020600020905b81548152906001019060200180831161098957829003601f168201915b5050505050905090565b600254600090815260046020526040902080546060919061092d90611855565b606060036000600254815260200190815260200160002083836040516109f7929190611a07565b90815260200160405180910390208054610a1090611855565b80601f0160208091040260200160405190810160405280929190818152602001828054610a3c90611855565b8015610a895780601f10610a5e57610100808354040283529160200191610a89565b820191906000526020600020905b815481529060010190602001808311610a6c57829003601f168201915b5050505050905092915050565b336001600160a01b037f0000000000000000000000000000000000000000000000000000000000000000168114610b135760405163432e033760e11b81526001600160a01b037f0000000000000000000000000000000000000000000000000000000000000000811660048301528216602482015260440161040c565b600086815260208190526040902080546001600160a01b0316610b715760405162461bcd60e51b81526020600482015260166024820152751c995c5d595cdd08191bd95cc81b9bdd08195e1a5cdd60521b604482015260640161040c565b60038101610b80868883611a17565b508585600360008460010154815260200190815260200160002083600201604051610bab9190611ad1565b90815260200160405180910390209182610bc6929190611a17565b5060018101546000908152600460205260409020610be76002830182611b47565b5060018101546000908152600560205260409020610c06868883611a17565b507faf2b2381ddcb18a2b18a7826186fd216acdd9c852a8c7a9a49e7eab127f96ccf8782600101548360020189898989604051610c499796959493929190611c3c565b60405180910390a150505050505050565b600460205260009081526040902080546105d490611855565b60008282604051602001610c88929190611d07565b60408051601f19818403018152602083810183526000808552600b80825260019092527ffc80cd5fe514767bc6e66ec558e68a5429ea70b50fa6caa3b53fc9278e918632549351632dca9c0360e11b815292955085943094909391926001600160a01b037f00000000000000000000000000000000000000000000000000000000000000001692635b953806923492610d359290918a918a916001600160401b0316908a906004016117e7565b60206040518083038185885af1158015610d53573d6000803e3d6000fd5b50505050506040513d601f19601f82011682018060405250810190610d78919061183c565b600081815260208190526040902090915060028101610d9786826118f5565b5080546001600160a01b031916339081178255600b600183018190556040517fa0faead83d70148ae18b694377f9bef079251342ab90e14af0f9ef68b891269f926105a99286928b906119ae565b6060610df082610e2e565b8360200151610e028560400151610e2e565b8551604051610e179493929190602001611e01565b604051602081830303815290604052905092915050565b60608160ff16600003610e585750506040805180820190915260018152600360fc1b602082015290565b6000825b60ff811615610e855781610e6f81611eca565b9250610e7e9050600a82611eff565b9050610e5c565b60008260ff166001600160401b03811115610ea257610ea2610f45565b6040519080825280601f01601f191660200182016040528015610ecc576020820181803683370190505b5090505b60ff851615610f3d57610ee4600184611f21565b9250610ef1600a86611f3a565b610efc90603061139c565b60f81b818460ff1681518110610f1457610f14611370565b60200101906001600160f81b031916908160001a905350610f36600a86611eff565b9450610ed0565b949350505050565b634e487b7160e01b600052604160045260246000fd5b604051608081016001600160401b0381118282101715610f7d57610f7d610f45565b60405290565b604051606081016001600160401b0381118282101715610f7d57610f7d610f45565b600082601f830112610fb657600080fd5b81356001600160401b0380821115610fd057610fd0610f45565b604051601f8301601f19908116603f01168101908282118183101715610ff857610ff8610f45565b8160405283815286602085880101111561101157600080fd5b836020870160208301376000602085830101528094505050505092915050565b6000602080838503121561104457600080fd5b82356001600160401b038082111561105b57600080fd5b818501915085601f83011261106f57600080fd5b611077610f5b565b80608084018881111561108957600080fd5b845b8181101561112a578035858111156110a35760008081fd5b86016060818c0312156110b65760008081fd5b6110be610f83565b8135878111156110ce5760008081fd5b6110da8d828501610fa5565b82525088820135878111156110ef5760008081fd5b6110fb8d828501610fa5565b828b0152506040918201359160ff831683146111175760008081fd5b810191909152845292860192860161108b565b509098975050505050505050565b60006020828403121561114a57600080fd5b5035919050565b60005b8381101561116c578181015183820152602001611154565b50506000910152565b6000815180845261118d816020860160208601611151565b601f01601f19169290920160200192915050565b6020815260006111b46020830184611175565b9392505050565b6000602082840312156111cd57600080fd5b81356001600160401b03811681146111b457600080fd5b60018060a01b038516815283602082015260806040820152600061120b6080830185611175565b828103606084015261121d8185611175565b979650505050505050565b6000806040838503121561123b57600080fd5b8235915060208301356001600160401b0381111561125857600080fd5b61126485828601610fa5565b9150509250929050565b60008083601f84011261128057600080fd5b5081356001600160401b0381111561129757600080fd5b6020830191508360208285010111156112af57600080fd5b9250929050565b600080602083850312156112c957600080fd5b82356001600160401b038111156112df57600080fd5b6112eb8582860161126e565b90969095509350505050565b60008060008060006060868803121561130f57600080fd5b8535945060208601356001600160401b038082111561132d57600080fd5b61133989838a0161126e565b9096509450604088013591508082111561135257600080fd5b5061135f8882890161126e565b969995985093965092949392505050565b634e487b7160e01b600052603260045260246000fd5b634e487b7160e01b600052601160045260246000fd5b60ff81811683821601908111156106e1576106e1611386565b7f416e616c797a6520616e64206578706c61696e2074686520666f6c6c6f77696e81527f6720696e766573746d656e7420706f7274666f6c696f3a0a0a00000000000000602082015260008551611413816039850160208a01611151565b85519083019061142a816039840160208a01611151565b8551910190611440816039840160208901611151565b8451910190611456816039840160208801611151565b7f0a506c656173652070726f76696465206120636f6d70726568656e7369766520910160398101919091527f6578706c616e6174696f6e206f662074686573652061737365747320616e642060598201527f746865697220646973747269627574696f6e20696e2074686520696e7665737460798201526f036b2b73a103837b93a3337b634b797160851b60998201527f436f6e73696465722074686520666f6c6c6f77696e6720706f696e747320696e60a98201526f103cb7bab91030b730b63cb9b4b99d0560811b60c982015261121d6117656117026116a46116396115ea61158d60d988017f312e204272696566206465736372697074696f6e206f6620656163682061737381527f657420616e6420697473206b6579206368617261637465726973746963730a006020820152603f0190565b7f322e20526174696f6e616c6520626568696e642074686520646973747269627581527f74696f6e2070657263656e7461676573206261736564206f6e206d61726b65746020820152641031b0b80560d91b604082015260450190565b7f332e20506f74656e7469616c207269736b7320616e642062656e65666974732081527f6f66207468697320706f7274666f6c696f20636f6d706f736974696f6e0a00006020820152603e0190565b7f342e20486f77207468697320646973747269627574696f6e206d69676874207281527f65666c6563742063757272656e74206d61726b6574207472656e6473206f722060208201527234b73b32b9ba37b91039b2b73a34b6b2b73a0560691b604082015260530190565b7f352e20416e79206e6f7461626c652073796e657267696573206f72206469766581527f7273696669636174696f6e2062656e656669747320616d6f6e6720746865206160208201526539b9b2ba398560d11b604082015260460190565b7f362e20546865207369676e69666963616e6365206f662074686520737065636981527f66696320746f6b656e732063686f73656e20666f72206561636820617373657460208201526a1031b0ba32b3b7b93c850560a91b6040820152604b0190565b7f50726f7669646520796f757220616e616c7973697320696e206120636c65617281527f2c20636f6e63697365206d616e6e6572207375697461626c6520666f7220626f60208201527f7468206e6f7669636520616e6420657870657269656e63656420696e7665737460408201526337b9399760e11b606082015260640190565b85815260a06020820152600061180060a0830187611175565b6001600160a01b03861660408401526001600160401b038516606084015282810360808401526118308185611175565b98975050505050505050565b60006020828403121561184e57600080fd5b5051919050565b600181811c9082168061186957607f821691505b60208210810361188957634e487b7160e01b600052602260045260246000fd5b50919050565b601f8211156118db576000816000526020600020601f850160051c810160208610156118b85750805b601f850160051c820191505b818110156118d7578281556001016118c4565b5050505b505050565b600019600383901b1c191660019190911b1790565b81516001600160401b0381111561190e5761190e610f45565b6119228161191c8454611855565b8461188f565b602080601f831160018114611951576000841561193f5750858301515b61194985826118e0565b8655506118d7565b600085815260208120601f198616915b8281101561198057888601518255948401946001909101908401611961565b508582101561199e5787850151600019600388901b60f8161c191681555b5050505050600190811b01905550565b84815260018060a01b03841660208201528260408201526080606082015260006119db6080830184611175565b9695505050505050565b6000602082840312156119f757600080fd5b815180151581146111b457600080fd5b8183823760009101908152919050565b6001600160401b03831115611a2e57611a2e610f45565b611a4283611a3c8354611855565b8361188f565b6000601f841160018114611a705760008515611a5e5750838201355b611a6886826118e0565b845550611aca565b600083815260209020601f19861690835b82811015611aa15786850135825560209485019460019092019101611a81565b5086821015611abe5760001960f88860031b161c19848701351681555b505060018560011b0183555b5050505050565b6000808354611adf81611855565b60018281168015611af75760018114611b0c57611b3b565b60ff1984168752821515830287019450611b3b565b8760005260208060002060005b85811015611b325781548a820152908401908201611b19565b50505082870194505b50929695505050505050565b818103611b52575050565b611b5c8254611855565b6001600160401b03811115611b7357611b73610f45565b611b818161191c8454611855565b6000601f821160018114611baf5760008315611b9d5750848201545b611ba784826118e0565b855550611aca565b600085815260209020601f19841690600086815260209020845b83811015611be95782860154825560019586019590910190602001611bc9565b508583101561199e5793015460001960f8600387901b161c19169092555050600190811b01905550565b81835281816020850137506000828201602090810191909152601f909101601f19169091010190565b8781526000602088602084015260a0604084015260008854611c5d81611855565b8060a087015260c0600180841660008114611c7f5760018114611c9b57611ccb565b60ff19851660c08a015260c084151560051b8a01019550611ccb565b8d600052602060002060005b85811015611cc25781548b8201860152908301908801611ca7565b8a0160c0019650505b50505050508381036060850152611ce381888a611c13565b9150508281036080840152611cf9818587611c13565b9a9950505050505050505050565b7f53756d6d6172697a652074686520666f6c6c6f77696e6720736d61727420636f81527f6e74726163742070726f6a65637420666f7220706f74656e7469616c20746f6b60208201526a32b710313abcb2b939970560a91b60408201527f466f637573206f6e206b65792061737065637473207375636820617320746f6b604b8201527f656e6f6d6963732c2073656375726974792066656174757265732c20616e6420606b8201527f756e697175652073656c6c696e6720706f696e74732e0a000000000000000000608b8201526b02a37b5b2b7103730b6b29d160a51b60a2820152818360ae8301376000910160ae01908152919050565b65020b9b9b2ba160d51b815260008551611e22816006850160208a01611151565b6101d160f51b6006918401918201528551611e44816008840160208a01611151565b61040560f31b600892909101918201528451611e6781600a840160208901611151565b6f129037b3103837b93a3337b634b7948560811b600a92909101918201526b02a37b5b2b7102730b6b29d160a51b601a8201528351611ead816026840160208801611151565b61050560f11b602692909101918201526028019695505050505050565b600060ff821660ff8103611ee057611ee0611386565b60010192915050565b634e487b7160e01b600052601260045260246000fd5b600060ff831680611f1257611f12611ee9565b8060ff84160491505092915050565b60ff82811682821603908111156106e1576106e1611386565b600060ff831680611f4d57611f4d611ee9565b8060ff8416069150509291505056fea26469706673582212205db52e5a2955ee19e8e6383fe182c55706b690c9ec6975ab070d115abde4008f64736f6c63430008190033","linkReferences":{}},"methodIdentifiers":{"aiOracle()":"31b221cd","aiOracleCallback(uint256,bytes,bytes)":"b0347814","callbackGasLimit(uint256)":"20f38718","estimateFee()":"7f18dc85","getAIResult(string)":"aff0396b","getLatestPrompt()":"ad39277e","getLatestResponse()":"a814e34f","isFinalized(uint256)":"33727c4d","latestPrompts(uint256)":"e6c2fa34","latestResponses(uint256)":"11f7777f","modelId()":"43cdaad2","prompts(uint256,string)":"8cbc52d9","requests(uint256)":"81d12c58","setCallbackGasLimit(uint64)":"6ec31914","summarizeInvestment((string,string,uint8)[4])":"012aec00","summarizeProject(string)":"f91c1b0e"},"id":24}